{
  "_format": "hh-sol-artifact-1",
  "contractName": "InvestmentToken721",
  "sourceName": "contracts/InvestmentToken721.sol",
  "abi": [
    {
      "inputs": [
        {
          "internalType": "address",
          "name": "initialOwner",
          "type": "address"
        }
      ],
      "stateMutability": "nonpayable",
      "type": "constructor"
    },
    {
      "inputs": [
        {
          "internalType": "address",
          "name": "sender",
          "type": "address"
        },
        {
          "internalType": "uint256",
          "name": "tokenId",
          "type": "uint256"
        },
        {
          "internalType": "address",
          "name": "owner",
          "type": "address"
        }
      ],
      "name": "ERC721IncorrectOwner",
      "type": "error"
    },
    {
      "inputs": [
        {
          "internalType": "address",
          "name": "operator",
          "type": "address"
        },
        {
          "internalType": "uint256",
          "name": "tokenId",
          "type": "uint256"
        }
      ],
      "name": "ERC721InsufficientApproval",
      "type": "error"
    },
    {
      "inputs": [
        {
          "internalType": "address",
          "name": "approver",
          "type": "address"
        }
      ],
      "name": "ERC721InvalidApprover",
      "type": "error"
    },
    {
      "inputs": [
        {
          "internalType": "address",
          "name": "operator",
          "type": "address"
        }
      ],
      "name": "ERC721InvalidOperator",
      "type": "error"
    },
    {
      "inputs": [
        {
          "internalType": "address",
          "name": "owner",
          "type": "address"
        }
      ],
      "name": "ERC721InvalidOwner",
      "type": "error"
    },
    {
      "inputs": [
        {
          "internalType": "address",
          "name": "receiver",
          "type": "address"
        }
      ],
      "name": "ERC721InvalidReceiver",
      "type": "error"
    },
    {
      "inputs": [
        {
          "internalType": "address",
          "name": "sender",
          "type": "address"
        }
      ],
      "name": "ERC721InvalidSender",
      "type": "error"
    },
    {
      "inputs": [
        {
          "internalType": "uint256",
          "name": "tokenId",
          "type": "uint256"
        }
      ],
      "name": "ERC721NonexistentToken",
      "type": "error"
    },
    {
      "inputs": [
        {
          "internalType": "address",
          "name": "owner",
          "type": "address"
        }
      ],
      "name": "OwnableInvalidOwner",
      "type": "error"
    },
    {
      "inputs": [
        {
          "internalType": "address",
          "name": "account",
          "type": "address"
        }
      ],
      "name": "OwnableUnauthorizedAccount",
      "type": "error"
    },
    {
      "anonymous": false,
      "inputs": [
        {
          "indexed": true,
          "internalType": "address",
          "name": "owner",
          "type": "address"
        },
        {
          "indexed": true,
          "internalType": "address",
          "name": "approved",
          "type": "address"
        },
        {
          "indexed": true,
          "internalType": "uint256",
          "name": "tokenId",
          "type": "uint256"
        }
      ],
      "name": "Approval",
      "type": "event"
    },
    {
      "anonymous": false,
      "inputs": [
        {
          "indexed": true,
          "internalType": "address",
          "name": "owner",
          "type": "address"
        },
        {
          "indexed": true,
          "internalType": "address",
          "name": "operator",
          "type": "address"
        },
        {
          "indexed": false,
          "internalType": "bool",
          "name": "approved",
          "type": "bool"
        }
      ],
      "name": "ApprovalForAll",
      "type": "event"
    },
    {
      "anonymous": false,
      "inputs": [
        {
          "indexed": false,
          "internalType": "uint256",
          "name": "_fromTokenId",
          "type": "uint256"
        },
        {
          "indexed": false,
          "internalType": "uint256",
          "name": "_toTokenId",
          "type": "uint256"
        }
      ],
      "name": "BatchMetadataUpdate",
      "type": "event"
    },
    {
      "anonymous": false,
      "inputs": [
        {
          "indexed": true,
          "internalType": "uint256",
          "name": "tokenId",
          "type": "uint256"
        },
        {
          "indexed": true,
          "internalType": "address",
          "name": "investor",
          "type": "address"
        },
        {
          "indexed": false,
          "internalType": "string",
          "name": "symbol",
          "type": "string"
        },
        {
          "indexed": false,
          "internalType": "string",
          "name": "name",
          "type": "string"
        },
        {
          "indexed": false,
          "internalType": "uint256",
          "name": "amountUSD",
          "type": "uint256"
        },
        {
          "indexed": false,
          "internalType": "string",
          "name": "uri",
          "type": "string"
        }
      ],
      "name": "InvestmentNFTMinted",
      "type": "event"
    },
    {
      "anonymous": false,
      "inputs": [
        {
          "indexed": false,
          "internalType": "uint256",
          "name": "_tokenId",
          "type": "uint256"
        }
      ],
      "name": "MetadataUpdate",
      "type": "event"
    },
    {
      "anonymous": false,
      "inputs": [
        {
          "indexed": true,
          "internalType": "address",
          "name": "previousOwner",
          "type": "address"
        },
        {
          "indexed": true,
          "internalType": "address",
          "name": "newOwner",
          "type": "address"
        }
      ],
      "name": "OwnershipTransferred",
      "type": "event"
    },
    {
      "anonymous": false,
      "inputs": [
        {
          "indexed": true,
          "internalType": "address",
          "name": "from",
          "type": "address"
        },
        {
          "indexed": true,
          "internalType": "address",
          "name": "to",
          "type": "address"
        },
        {
          "indexed": true,
          "internalType": "uint256",
          "name": "tokenId",
          "type": "uint256"
        }
      ],
      "name": "Transfer",
      "type": "event"
    },
    {
      "inputs": [
        {
          "internalType": "address",
          "name": "to",
          "type": "address"
        },
        {
          "internalType": "uint256",
          "name": "tokenId",
          "type": "uint256"
        }
      ],
      "name": "approve",
      "outputs": [],
      "stateMutability": "nonpayable",
      "type": "function"
    },
    {
      "inputs": [
        {
          "internalType": "address",
          "name": "owner",
          "type": "address"
        }
      ],
      "name": "balanceOf",
      "outputs": [
        {
          "internalType": "uint256",
          "name": "",
          "type": "uint256"
        }
      ],
      "stateMutability": "view",
      "type": "function"
    },
    {
      "inputs": [
        {
          "internalType": "uint256",
          "name": "tokenId",
          "type": "uint256"
        }
      ],
      "name": "getApproved",
      "outputs": [
        {
          "internalType": "address",
          "name": "",
          "type": "address"
        }
      ],
      "stateMutability": "view",
      "type": "function"
    },
    {
      "inputs": [
        {
          "internalType": "uint256",
          "name": "",
          "type": "uint256"
        }
      ],
      "name": "investments",
      "outputs": [
        {
          "internalType": "string",
          "name": "symbol",
          "type": "string"
        },
        {
          "internalType": "string",
          "name": "name",
          "type": "string"
        },
        {
          "internalType": "string",
          "name": "uri",
          "type": "string"
        },
        {
          "internalType": "uint256",
          "name": "amountUSD",
          "type": "uint256"
        },
        {
          "internalType": "uint256",
          "name": "timestamp",
          "type": "uint256"
        }
      ],
      "stateMutability": "view",
      "type": "function"
    },
    {
      "inputs": [
        {
          "internalType": "address",
          "name": "owner",
          "type": "address"
        },
        {
          "internalType": "address",
          "name": "operator",
          "type": "address"
        }
      ],
      "name": "isApprovedForAll",
      "outputs": [
        {
          "internalType": "bool",
          "name": "",
          "type": "bool"
        }
      ],
      "stateMutability": "view",
      "type": "function"
    },
    {
      "inputs": [
        {
          "internalType": "address",
          "name": "to",
          "type": "address"
        },
        {
          "internalType": "string",
          "name": "symbol",
          "type": "string"
        },
        {
          "internalType": "string",
          "name": "name",
          "type": "string"
        },
        {
          "internalType": "string",
          "name": "uri",
          "type": "string"
        },
        {
          "internalType": "uint256",
          "name": "amountUSD",
          "type": "uint256"
        }
      ],
      "name": "mintInvestmentNFT",
      "outputs": [
        {
          "internalType": "uint256",
          "name": "",
          "type": "uint256"
        }
      ],
      "stateMutability": "nonpayable",
      "type": "function"
    },
    {
      "inputs": [],
      "name": "name",
      "outputs": [
        {
          "internalType": "string",
          "name": "",
          "type": "string"
        }
      ],
      "stateMutability": "view",
      "type": "function"
    },
    {
      "inputs": [],
      "name": "owner",
      "outputs": [
        {
          "internalType": "address",
          "name": "",
          "type": "address"
        }
      ],
      "stateMutability": "view",
      "type": "function"
    },
    {
      "inputs": [
        {
          "internalType": "uint256",
          "name": "tokenId",
          "type": "uint256"
        }
      ],
      "name": "ownerOf",
      "outputs": [
        {
          "internalType": "address",
          "name": "",
          "type": "address"
        }
      ],
      "stateMutability": "view",
      "type": "function"
    },
    {
      "inputs": [],
      "name": "renounceOwnership",
      "outputs": [],
      "stateMutability": "nonpayable",
      "type": "function"
    },
    {
      "inputs": [
        {
          "internalType": "address",
          "name": "from",
          "type": "address"
        },
        {
          "internalType": "address",
          "name": "to",
          "type": "address"
        },
        {
          "internalType": "uint256",
          "name": "tokenId",
          "type": "uint256"
        }
      ],
      "name": "safeTransferFrom",
      "outputs": [],
      "stateMutability": "nonpayable",
      "type": "function"
    },
    {
      "inputs": [
        {
          "internalType": "address",
          "name": "from",
          "type": "address"
        },
        {
          "internalType": "address",
          "name": "to",
          "type": "address"
        },
        {
          "internalType": "uint256",
          "name": "tokenId",
          "type": "uint256"
        },
        {
          "internalType": "bytes",
          "name": "data",
          "type": "bytes"
        }
      ],
      "name": "safeTransferFrom",
      "outputs": [],
      "stateMutability": "nonpayable",
      "type": "function"
    },
    {
      "inputs": [
        {
          "internalType": "address",
          "name": "operator",
          "type": "address"
        },
        {
          "internalType": "bool",
          "name": "approved",
          "type": "bool"
        }
      ],
      "name": "setApprovalForAll",
      "outputs": [],
      "stateMutability": "nonpayable",
      "type": "function"
    },
    {
      "inputs": [
        {
          "internalType": "bytes4",
          "name": "interfaceId",
          "type": "bytes4"
        }
      ],
      "name": "supportsInterface",
      "outputs": [
        {
          "internalType": "bool",
          "name": "",
          "type": "bool"
        }
      ],
      "stateMutability": "view",
      "type": "function"
    },
    {
      "inputs": [],
      "name": "symbol",
      "outputs": [
        {
          "internalType": "string",
          "name": "",
          "type": "string"
        }
      ],
      "stateMutability": "view",
      "type": "function"
    },
    {
      "inputs": [
        {
          "internalType": "uint256",
          "name": "tokenId",
          "type": "uint256"
        }
      ],
      "name": "tokenURI",
      "outputs": [
        {
          "internalType": "string",
          "name": "",
          "type": "string"
        }
      ],
      "stateMutability": "view",
      "type": "function"
    },
    {
      "inputs": [
        {
          "internalType": "address",
          "name": "from",
          "type": "address"
        },
        {
          "internalType": "address",
          "name": "to",
          "type": "address"
        },
        {
          "internalType": "uint256",
          "name": "tokenId",
          "type": "uint256"
        }
      ],
      "name": "transferFrom",
      "outputs": [],
      "stateMutability": "nonpayable",
      "type": "function"
    },
    {
      "inputs": [
        {
          "internalType": "address",
          "name": "newOwner",
          "type": "address"
        }
      ],
      "name": "transferOwnership",
      "outputs": [],
      "stateMutability": "nonpayable",
      "type": "function"
    },
    {
      "inputs": [
        {
          "internalType": "uint256",
          "name": "tokenId",
          "type": "uint256"
        },
        {
          "internalType": "address",
          "name": "claimedOwner",
          "type": "address"
        }
      ],
      "name": "verifyOwnership",
      "outputs": [
        {
          "internalType": "bool",
          "name": "",
          "type": "bool"
        }
      ],
      "stateMutability": "view",
      "type": "function"
    }
  ],
  "bytecode": "0x6080604052346103b15761195a6020813803918261001c816103b6565b9384928339810103126103b157516001600160a01b038116908190036103b15761004660406103b6565b90601682527f496e766573746d656e7420436572746966696361746500000000000000000000602083015261007b60406103b6565b60068152651253959154d560d21b602082015282519091906001600160401b0381116102bc57600054600181811c911680156103a7575b602082101461029c57601f8111610343575b506020601f82116001146102dd57819293946000926102d2575b50508160011b916000199060031b1c1916176000555b81516001600160401b0381116102bc57600154600181811c911680156102b2575b602082101461029c57601f8111610237575b50602092601f82116001146101d257928192936000926101c7575b50508160011b916000199060031b1c1916176001555b80156101b157600780546001600160a01b03198116831790915560405191906001600160a01b03167f8be0079c531659141344cd1fd0a4f28419497f9722a3daafe3b4186f6b6457e0600080a361157e90816103dc8239f35b631e4fbdf760e01b600052600060045260246000fd5b015190503880610142565b601f198216936001600052806000209160005b86811061021f5750836001959610610206575b505050811b01600155610158565b015160001960f88460031b161c191690553880806101f8565b919260206001819286850151815501940192016101e5565b60016000527fb10e2d527612073b26eecdfd717e6a320cf44b4afac2b0732d9fcbe2b7fa0cf6601f830160051c81019160208410610292575b601f0160051c01905b8181106102865750610127565b60008155600101610279565b9091508190610270565b634e487b7160e01b600052602260045260246000fd5b90607f1690610115565b634e487b7160e01b600052604160045260246000fd5b0151905038806100de565b601f1982169060008052806000209160005b81811061032b57509583600195969710610312575b505050811b016000556100f4565b015160001960f88460031b161c19169055388080610304565b9192602060018192868b0151815501940192016102ef565b600080527f290decd9548b62a8d60345a988386fc84ba6bc95484008f6362f93160ef3e563601f830160051c8101916020841061039d575b601f0160051c01905b81811061039157506100c4565b60008155600101610384565b909150819061037b565b90607f16906100b2565b600080fd5b6040519190601f01601f191682016001600160401b038111838210176102bc5760405256fe608080604052600436101561001357600080fd5b60003560e01c90816301ffc9a714610f365750806306fdde0314610e91578063081812fc14610e53578063095ea7b314610d6457806309cc449d14610d275780631d283190146105c457806323b872dd146105ad57806342842e0e146105835780636352211e1461055357806370a08231146104fd578063715018a6146104a05780638da5cb5b1461047757806395d89b41146103aa578063a22cb46514610309578063b88d4fde146102a7578063c87b56dd14610270578063e985e9c514610215578063f2fde38b1461018b5763fd345c8a146100f057600080fd5b3461018657602036600319011261018657600435600052600960205261015b604060002061011d8161112d565b9061012a6001820161112d565b6101776101396002840161112d565b610169600460038601549501549360405197889760a0895260a0890190610fbb565b908782036020890152610fbb565b908582036040870152610fbb565b91606084015260808301520390f35b600080fd5b34610186576020366003190112610186576101a4610ffa565b6101ac61151f565b6001600160a01b031680156101ff57600780546001600160a01b0319811683179091556001600160a01b03167f8be0079c531659141344cd1fd0a4f28419497f9722a3daafe3b4186f6b6457e0600080a3005b631e4fbdf760e01b600052600060045260246000fd5b346101865760403660031901126101865761022e610ffa565b610236611010565b9060018060a01b0316600052600560205260406000209060018060a01b0316600052602052602060ff604060002054166040519015158152f35b34610186576020366003190112610186576102a361028f6004356114b5565b604051918291602083526020830190610fbb565b0390f35b34610186576080366003190112610186576102c0610ffa565b6102c8611010565b6064359167ffffffffffffffff83116101865736602384011215610186576102fd610307933690602481600401359101611064565b9160443591611367565b005b3461018657604036600319011261018657610322610ffa565b60243590811515809203610186576001600160a01b031690811561039557336000526005602052604060002082600052602052604060002060ff1981541660ff83161790556040519081527f17307eab39ab6107e8899845ad3d59bd9653f200f220920489ca2b5937696c3160203392a3005b50630b61174360e31b60005260045260246000fd5b346101865760003660031901126101865760405160006001546103cc816110f3565b808452906001811690811561045357506001146103f4575b6102a38361028f81850382611026565b600160009081527fb10e2d527612073b26eecdfd717e6a320cf44b4afac2b0732d9fcbe2b7fa0cf6939250905b8082106104395750909150810160200161028f6103e4565b919260018160209254838588010152019101909291610421565b60ff191660208086019190915291151560051b8401909101915061028f90506103e4565b34610186576000366003190112610186576007546040516001600160a01b039091168152602090f35b34610186576000366003190112610186576104b961151f565b600780546001600160a01b031981169091556000906001600160a01b03167f8be0079c531659141344cd1fd0a4f28419497f9722a3daafe3b4186f6b6457e08280a3005b34610186576020366003190112610186576001600160a01b0361051e610ffa565b16801561053d5760005260036020526020604060002054604051908152f35b6322718ad960e21b600052600060045260246000fd5b346101865760203660031901126101865760206105716004356114e8565b6040516001600160a01b039091168152f35b3461018657610307610594366110b9565b90604051926105a4602085611026565b60008452611367565b34610186576103076105be366110b9565b916111d1565b346101865760a0366003190112610186576105dd610ffa565b60243567ffffffffffffffff8111610186576105fd90369060040161109b565b9060443567ffffffffffffffff81116101865761061e90369060040161109b565b60643567ffffffffffffffff81116101865761063e90369060040161109b565b6084359061064a61151f565b6008549360018501809511610d115760088590556001600160a01b0316928315610cfb576000858152600260205260018060a01b036040822054168686827fddf252ad1be2c89b69c2b068fc378daa952ba7f163c4a11628f55a4df523b3ef8115159586610cc6575b83815260036020526040812060018154019055848152600260205260408120846bffffffffffffffffffffffff60a01b82541617905580a450610cb0578460005260066020526040600020825167ffffffffffffffff8111610a5e5761071982546110f3565b601f8111610c68575b50806020601f8211600114610c0557600091610bfa575b508160011b916000199060031b1c19161790555b7ff8e1a15aba9398e019f0b49df1a4fde98ee17ae345cb5f6b5e2c27f5033e8ce76020604051878152a160405160a0810181811067ffffffffffffffff821117610a5e576040528681526020810182815260408201848152606083019086825260808401924284528960005260096020526040600020945180519067ffffffffffffffff8211610a5e5781906107e388546110f3565b601f8111610ba7575b50602090601f8311600114610b4257600092610b37575b50508160011b916000199060031b1c19161785555b518051600186019167ffffffffffffffff8211610a5e57819061083b84546110f3565b601f8111610ae4575b50602090601f8311600114610a7f57600092610a74575b50508160011b916000199060031b1c19161790555b518051600285019167ffffffffffffffff8211610a5e5761089183546110f3565b601f8111610a16575b509160209b979593918b999795938d90601f831160011461095e5794610935946109489894846109289c99956004957f11564eb4046ef749594029f9b9c14b73227f43b80ac667e1ca4d132e9aaacf8e9f9d9a600092610953575b50508160011b916000199060031b1c19161790555b51600384015551910155604051968796608088526080880190610fbb565b908682038d880152610fbb565b9160408501528382036060850152610fbb565b0390a3604051908152f35b0151905038806108f5565b90601f1983169184600052816000209260005b8181106109e25750946001856004957f11564eb4046ef749594029f9b9c14b73227f43b80ac667e1ca4d132e9aaacf8e9f9d9a956109289f9c98956109359b966109489f9b106109c9575b505050811b01905561090a565b015160001960f88460031b161c191690553880806109bc565b93602091929395969798999a9b9c9d9e50600182918786015181550195019301908f9d9c9b9a999897969594939291610971565b836000526020600020601f840160051c81019160208510610a54575b601f0160051c01905b818110610a48575061089a565b60008155600101610a3b565b9091508190610a32565b634e487b7160e01b600052604160045260246000fd5b015190508d8061085b565b60008581528281209350601f198516905b818110610acc5750908460019594939210610ab3575b505050811b019055610870565b015160001960f88460031b161c191690558d8080610aa6565b92936020600181928786015181550195019301610a90565b909150836000526020600020601f840160051c81019160208510610b2d575b90601f859493920160051c01905b818110610b1e5750610844565b60008155849350600101610b11565b9091508190610b03565b015190508d80610803565b60008981528281209350601f198516905b818110610b8f5750908460019594939210610b76575b505050811b018555610818565b015160001960f88460031b161c191690558d8080610b69565b92936020600181928786015181550195019301610b53565b909150876000526020600020601f840160051c81019160208510610bf0575b90601f859493920160051c01905b818110610be157506107ec565b60008155849350600101610bd4565b9091508190610bc6565b905084015189610739565b60008481528181209250601f198416905b818110610c5057509083600194939210610c37575b5050811b01905561074d565b86015160001960f88460031b161c191690558980610c2b565b9192602060018192868b015181550194019201610c16565b826000526020600020601f830160051c81019160208410610ca6575b601f0160051c01905b818110610c9a5750610722565b60008155600101610c8d565b9091508190610c84565b6339e3563760e11b600052600060045260246000fd5b600085815260046020526040902080546001600160a01b031916905582815260036020526040812080546000190190556106b3565b633250574960e11b600052600060045260246000fd5b634e487b7160e01b600052601160045260246000fd5b34610186576040366003190112610186576020610d42611010565b610d4d6004356114e8565b6040516001600160a01b0391821691909216148152f35b3461018657604036600319011261018657610d7d610ffa565b602435610d89816114e8565b33151580610e40575b80610e12575b610dfd5781906001600160a01b0384811691167f8c5be1e5ebec7d5bd14f71427d1e84f3dd0314c0f7b2291e5b200ac8c7c3b925600080a4600090815260046020526040902080546001600160a01b0319166001600160a01b03909216919091179055005b63a9fbf51f60e01b6000523360045260246000fd5b506001600160a01b038116600090815260056020908152604080832033845290915290205460ff1615610d98565b506001600160a01b038116331415610d92565b3461018657602036600319011261018657600435610e70816114e8565b506000526004602052602060018060a01b0360406000205416604051908152f35b346101865760003660031901126101865760405160008054610eb2816110f3565b80845290600181169081156104535750600114610ed9576102a38361028f81850382611026565b60008080527f290decd9548b62a8d60345a988386fc84ba6bc95484008f6362f93160ef3e563939250905b808210610f1c5750909150810160200161028f6103e4565b919260018160209254838588010152019101909291610f04565b34610186576020366003190112610186576004359063ffffffff60e01b821680920361018657602091632483248360e11b8114908115610f78575b5015158152f35b6380ac58cd60e01b811491508115610faa575b8115610f99575b5083610f71565b6301ffc9a760e01b14905083610f92565b635b5e139f60e01b81149150610f8b565b919082518082526020808301940160005b828110610fea575050600081602094950152601f8019910116010190565b8181015186820152602001610fcc565b600435906001600160a01b038216820361018657565b602435906001600160a01b038216820361018657565b90601f8019910116810190811067ffffffffffffffff821117610a5e57604052565b67ffffffffffffffff8111610a5e57601f01601f191660200190565b92919261107082611048565b9161107e6040519384611026565b829481845281830111610186578281602093846000960137010152565b9080601f83011215610186578160206110b693359101611064565b90565b6060906003190112610186576004356001600160a01b038116810361018657906024356001600160a01b0381168103610186579060443590565b90600182811c92168015611123575b602083101461110d57565b634e487b7160e01b600052602260045260246000fd5b91607f1691611102565b9060405191826000825492611141846110f3565b80845293600181169081156111af5750600114611168575b5061116692500383611026565b565b90506000929192526020600020906000915b8183106111935750509060206111669282010138611159565b602091935080600191548385890101520191019091849261117a565b90506020925061116694915060ff191682840152151560051b82010138611159565b6001600160a01b0390911691908215610cfb576000828152600260205260408120546001600160a01b03169383918590331515806112cf575b507fddf252ad1be2c89b69c2b068fc378daa952ba7f163c4a11628f55a4df523b3ef908261129a575b83815260036020526040812060018154019055848152600260205260408120846bffffffffffffffffffffffff60a01b82541617905580a46001600160a01b031680830361128057505050565b6364283d7b60e01b60005260045260245260445260646000fd5b600085815260046020526040902080546001600160a01b03191690558281526003602052604081208054600019019055611233565b915091925080611318575b156112e957908484923861120a565b83908561130257602491637e27328960e01b8252600452fd5b60449163177e802f60e01b825233600452602452fd5b503385148015611346575b806112da5750838152600460205260408120546001600160a01b031633146112da565b5084815260056020908152604080832033845290915281205460ff16611323565b92916113748183866111d1565b813b611381575b50505050565b604051630a85bd0160e11b81523360048201526001600160a01b03948516602482015260448101919091526080606482015292169190602090829081906113cc906084830190610fbb565b03816000865af1809160009161146b575b509061143657503d1561142f573d6113f481611048565b906114026040519283611026565b81523d6000602083013e5b8051908161142a5782633250574960e11b60005260045260246000fd5b602001fd5b606061140d565b6001600160e01b03191663757a42ff60e11b0161145757503880808061137b565b633250574960e11b60005260045260246000fd5b6020813d6020116114ad575b8161148460209383611026565b810103126114a95751906001600160e01b0319821682036114a65750386113dd565b80fd5b5080fd5b3d9150611477565b6114be816114e8565b5060005260066020526114d4604060002061112d565b60006040516114e4602082611026565b5290565b6000818152600260205260409020546001600160a01b031690811561150b575090565b637e27328960e01b60005260045260246000fd5b6007546001600160a01b0316330361153357565b63118cdaa760e01b6000523360045260246000fdfea2646970667358221220080820f5a21cf18fdcdde228506a742bdd6ff3056a1f44cd2fed2e9ff12e287a64736f6c634300081c0033",
  "linkReferences": {},
  "deployedLinkReferences": {}
}