{
  "_format": "hh-sol-artifact-1",
  "contractName": "InvestmentToken",
  "sourceName": "contracts/InvestmentToken.sol",
  "abi": [
    {
      "inputs": [
        {
          "internalType": "string",
          "name": "initialURI",
          "type": "string"
        }
      ],
      "stateMutability": "nonpayable",
      "type": "constructor"
    },
    {
      "inputs": [
        {
          "internalType": "address",
          "name": "sender",
          "type": "address"
        },
        {
          "internalType": "uint256",
          "name": "balance",
          "type": "uint256"
        },
        {
          "internalType": "uint256",
          "name": "needed",
          "type": "uint256"
        },
        {
          "internalType": "uint256",
          "name": "tokenId",
          "type": "uint256"
        }
      ],
      "name": "ERC1155InsufficientBalance",
      "type": "error"
    },
    {
      "inputs": [
        {
          "internalType": "address",
          "name": "approver",
          "type": "address"
        }
      ],
      "name": "ERC1155InvalidApprover",
      "type": "error"
    },
    {
      "inputs": [
        {
          "internalType": "uint256",
          "name": "idsLength",
          "type": "uint256"
        },
        {
          "internalType": "uint256",
          "name": "valuesLength",
          "type": "uint256"
        }
      ],
      "name": "ERC1155InvalidArrayLength",
      "type": "error"
    },
    {
      "inputs": [
        {
          "internalType": "address",
          "name": "operator",
          "type": "address"
        }
      ],
      "name": "ERC1155InvalidOperator",
      "type": "error"
    },
    {
      "inputs": [
        {
          "internalType": "address",
          "name": "receiver",
          "type": "address"
        }
      ],
      "name": "ERC1155InvalidReceiver",
      "type": "error"
    },
    {
      "inputs": [
        {
          "internalType": "address",
          "name": "sender",
          "type": "address"
        }
      ],
      "name": "ERC1155InvalidSender",
      "type": "error"
    },
    {
      "inputs": [
        {
          "internalType": "address",
          "name": "operator",
          "type": "address"
        },
        {
          "internalType": "address",
          "name": "owner",
          "type": "address"
        }
      ],
      "name": "ERC1155MissingApprovalForAll",
      "type": "error"
    },
    {
      "inputs": [
        {
          "internalType": "address",
          "name": "owner",
          "type": "address"
        }
      ],
      "name": "OwnableInvalidOwner",
      "type": "error"
    },
    {
      "inputs": [
        {
          "internalType": "address",
          "name": "account",
          "type": "address"
        }
      ],
      "name": "OwnableUnauthorizedAccount",
      "type": "error"
    },
    {
      "anonymous": false,
      "inputs": [
        {
          "indexed": true,
          "internalType": "address",
          "name": "account",
          "type": "address"
        },
        {
          "indexed": true,
          "internalType": "address",
          "name": "operator",
          "type": "address"
        },
        {
          "indexed": false,
          "internalType": "bool",
          "name": "approved",
          "type": "bool"
        }
      ],
      "name": "ApprovalForAll",
      "type": "event"
    },
    {
      "anonymous": false,
      "inputs": [
        {
          "indexed": true,
          "internalType": "address",
          "name": "previousOwner",
          "type": "address"
        },
        {
          "indexed": true,
          "internalType": "address",
          "name": "newOwner",
          "type": "address"
        }
      ],
      "name": "OwnershipTransferred",
      "type": "event"
    },
    {
      "anonymous": false,
      "inputs": [
        {
          "indexed": true,
          "internalType": "uint256",
          "name": "tokenId",
          "type": "uint256"
        },
        {
          "indexed": true,
          "internalType": "address",
          "name": "investor",
          "type": "address"
        },
        {
          "indexed": false,
          "internalType": "string",
          "name": "symbol",
          "type": "string"
        },
        {
          "indexed": false,
          "internalType": "string",
          "name": "name",
          "type": "string"
        },
        {
          "indexed": false,
          "internalType": "uint256",
          "name": "amount",
          "type": "uint256"
        }
      ],
      "name": "TokenMinted",
      "type": "event"
    },
    {
      "anonymous": false,
      "inputs": [
        {
          "indexed": true,
          "internalType": "address",
          "name": "operator",
          "type": "address"
        },
        {
          "indexed": true,
          "internalType": "address",
          "name": "from",
          "type": "address"
        },
        {
          "indexed": true,
          "internalType": "address",
          "name": "to",
          "type": "address"
        },
        {
          "indexed": false,
          "internalType": "uint256[]",
          "name": "ids",
          "type": "uint256[]"
        },
        {
          "indexed": false,
          "internalType": "uint256[]",
          "name": "values",
          "type": "uint256[]"
        }
      ],
      "name": "TransferBatch",
      "type": "event"
    },
    {
      "anonymous": false,
      "inputs": [
        {
          "indexed": true,
          "internalType": "address",
          "name": "operator",
          "type": "address"
        },
        {
          "indexed": true,
          "internalType": "address",
          "name": "from",
          "type": "address"
        },
        {
          "indexed": true,
          "internalType": "address",
          "name": "to",
          "type": "address"
        },
        {
          "indexed": false,
          "internalType": "uint256",
          "name": "id",
          "type": "uint256"
        },
        {
          "indexed": false,
          "internalType": "uint256",
          "name": "value",
          "type": "uint256"
        }
      ],
      "name": "TransferSingle",
      "type": "event"
    },
    {
      "anonymous": false,
      "inputs": [
        {
          "indexed": false,
          "internalType": "string",
          "name": "value",
          "type": "string"
        },
        {
          "indexed": true,
          "internalType": "uint256",
          "name": "id",
          "type": "uint256"
        }
      ],
      "name": "URI",
      "type": "event"
    },
    {
      "inputs": [
        {
          "internalType": "address",
          "name": "account",
          "type": "address"
        },
        {
          "internalType": "uint256",
          "name": "id",
          "type": "uint256"
        }
      ],
      "name": "balanceOf",
      "outputs": [
        {
          "internalType": "uint256",
          "name": "",
          "type": "uint256"
        }
      ],
      "stateMutability": "view",
      "type": "function"
    },
    {
      "inputs": [
        {
          "internalType": "address[]",
          "name": "accounts",
          "type": "address[]"
        },
        {
          "internalType": "uint256[]",
          "name": "ids",
          "type": "uint256[]"
        }
      ],
      "name": "balanceOfBatch",
      "outputs": [
        {
          "internalType": "uint256[]",
          "name": "",
          "type": "uint256[]"
        }
      ],
      "stateMutability": "view",
      "type": "function"
    },
    {
      "inputs": [
        {
          "internalType": "address",
          "name": "account",
          "type": "address"
        },
        {
          "internalType": "address",
          "name": "operator",
          "type": "address"
        }
      ],
      "name": "isApprovedForAll",
      "outputs": [
        {
          "internalType": "bool",
          "name": "",
          "type": "bool"
        }
      ],
      "stateMutability": "view",
      "type": "function"
    },
    {
      "inputs": [
        {
          "internalType": "address[]",
          "name": "investors",
          "type": "address[]"
        },
        {
          "internalType": "uint256[]",
          "name": "tokenIds",
          "type": "uint256[]"
        },
        {
          "internalType": "string[]",
          "name": "symbols",
          "type": "string[]"
        },
        {
          "internalType": "string[]",
          "name": "names",
          "type": "string[]"
        },
        {
          "internalType": "string[]",
          "name": "metadataURIs",
          "type": "string[]"
        },
        {
          "internalType": "uint256[]",
          "name": "amounts",
          "type": "uint256[]"
        }
      ],
      "name": "mintBatchInvestmentToken",
      "outputs": [],
      "stateMutability": "nonpayable",
      "type": "function"
    },
    {
      "inputs": [
        {
          "internalType": "address",
          "name": "investor",
          "type": "address"
        },
        {
          "internalType": "uint256",
          "name": "tokenId",
          "type": "uint256"
        },
        {
          "internalType": "string",
          "name": "symbol",
          "type": "string"
        },
        {
          "internalType": "string",
          "name": "name",
          "type": "string"
        },
        {
          "internalType": "string",
          "name": "metadataURI",
          "type": "string"
        },
        {
          "internalType": "uint256",
          "name": "amount",
          "type": "uint256"
        }
      ],
      "name": "mintInvestmentToken",
      "outputs": [],
      "stateMutability": "nonpayable",
      "type": "function"
    },
    {
      "inputs": [],
      "name": "owner",
      "outputs": [
        {
          "internalType": "address",
          "name": "",
          "type": "address"
        }
      ],
      "stateMutability": "view",
      "type": "function"
    },
    {
      "inputs": [],
      "name": "renounceOwnership",
      "outputs": [],
      "stateMutability": "nonpayable",
      "type": "function"
    },
    {
      "inputs": [
        {
          "internalType": "address",
          "name": "from",
          "type": "address"
        },
        {
          "internalType": "address",
          "name": "to",
          "type": "address"
        },
        {
          "internalType": "uint256[]",
          "name": "ids",
          "type": "uint256[]"
        },
        {
          "internalType": "uint256[]",
          "name": "values",
          "type": "uint256[]"
        },
        {
          "internalType": "bytes",
          "name": "data",
          "type": "bytes"
        }
      ],
      "name": "safeBatchTransferFrom",
      "outputs": [],
      "stateMutability": "nonpayable",
      "type": "function"
    },
    {
      "inputs": [
        {
          "internalType": "address",
          "name": "from",
          "type": "address"
        },
        {
          "internalType": "address",
          "name": "to",
          "type": "address"
        },
        {
          "internalType": "uint256",
          "name": "id",
          "type": "uint256"
        },
        {
          "internalType": "uint256",
          "name": "value",
          "type": "uint256"
        },
        {
          "internalType": "bytes",
          "name": "data",
          "type": "bytes"
        }
      ],
      "name": "safeTransferFrom",
      "outputs": [],
      "stateMutability": "nonpayable",
      "type": "function"
    },
    {
      "inputs": [
        {
          "internalType": "address",
          "name": "operator",
          "type": "address"
        },
        {
          "internalType": "bool",
          "name": "approved",
          "type": "bool"
        }
      ],
      "name": "setApprovalForAll",
      "outputs": [],
      "stateMutability": "nonpayable",
      "type": "function"
    },
    {
      "inputs": [
        {
          "internalType": "bytes4",
          "name": "interfaceId",
          "type": "bytes4"
        }
      ],
      "name": "supportsInterface",
      "outputs": [
        {
          "internalType": "bool",
          "name": "",
          "type": "bool"
        }
      ],
      "stateMutability": "view",
      "type": "function"
    },
    {
      "inputs": [
        {
          "internalType": "uint256",
          "name": "",
          "type": "uint256"
        }
      ],
      "name": "tokenInfo",
      "outputs": [
        {
          "internalType": "string",
          "name": "symbol",
          "type": "string"
        },
        {
          "internalType": "string",
          "name": "name",
          "type": "string"
        },
        {
          "internalType": "string",
          "name": "uri",
          "type": "string"
        },
        {
          "internalType": "uint256",
          "name": "amount",
          "type": "uint256"
        }
      ],
      "stateMutability": "view",
      "type": "function"
    },
    {
      "inputs": [
        {
          "internalType": "address",
          "name": "newOwner",
          "type": "address"
        }
      ],
      "name": "transferOwnership",
      "outputs": [],
      "stateMutability": "nonpayable",
      "type": "function"
    },
    {
      "inputs": [
        {
          "internalType": "uint256",
          "name": "tokenId",
          "type": "uint256"
        },
        {
          "internalType": "string",
          "name": "newURI",
          "type": "string"
        }
      ],
      "name": "updateTokenURI",
      "outputs": [],
      "stateMutability": "nonpayable",
      "type": "function"
    },
    {
      "inputs": [
        {
          "internalType": "uint256",
          "name": "tokenId",
          "type": "uint256"
        }
      ],
      "name": "uri",
      "outputs": [
        {
          "internalType": "string",
          "name": "",
          "type": "string"
        }
      ],
      "stateMutability": "view",
      "type": "function"
    }
  ],
  "bytecode": "0x60806040523461028057611ce58038038061001981610285565b928339810190602081830312610280578051906001600160401b038211610280570181601f82011215610280578051906001600160401b0382116102555761006a601f8301601f1916602001610285565b92828452602083830101116102805760005b82811061026b57600083850160200152835184906001600160401b03811161025557600254600181811c9116801561024b575b602082101461023557601f81116101d0575b50602091601f821160011461016c57918192600092610161575b50508160011b916000199060031b1c1916176002555b331561014b5760038054336001600160a01b03198216811790925560405191906001600160a01b03167f8be0079c531659141344cd1fd0a4f28419497f9722a3daafe3b4186f6b6457e0600080a3611a3a90816102ab8239f35b631e4fbdf760e01b600052600060045260246000fd5b0151905082806100db565b601f198216926002600052806000209160005b8581106101b85750836001951061019f575b505050811b016002556100f1565b015160001960f88460031b161c19169055828080610191565b9192602060018192868501518155019401920161017f565b60026000527f405787fa12a823e0f2b7631cc41b3ba8828b3321ca811111fa75cd3aa3bb5ace601f830160051c8101916020841061022b575b601f0160051c01905b81811061021f57506100c1565b60008155600101610212565b9091508190610209565b634e487b7160e01b600052602260045260246000fd5b90607f16906100af565b634e487b7160e01b600052604160045260246000fd5b8060208092840101518282870101520161007c565b600080fd5b6040519190601f01601f191682016001600160401b038111838210176102555760405256fe6080604052600436101561001257600080fd5b60003560e01c8062fdd58e1461010657806301ffc9a7146101015780630e89341c146100fc57806318e97fd1146100f75780632eb2c2d6146100f25780634e1273f4146100ed578063715018a6146100e857806376ba78c2146100e35780638da5cb5b146100de578063a22cb465146100d9578063cc33c875146100d4578063e5d67add146100cf578063e985e9c5146100ca578063f242432a146100c55763f2fde38b146100c057600080fd5b610c4f565b610b38565b610ad0565b610a43565b6109b6565b61081c565b6107f3565b610712565b610685565b6105c4565b6104eb565b61039b565b610247565b610184565b610121565b6001600160a01b0381160361011c57565b600080fd5b3461011c57604036600319011261011c5760206101696004356101438161010b565b6024356000526000835260406000209060018060a01b0316600052602052604060002090565b54604051908152f35b6001600160e01b031981160361011c57565b3461011c57602036600319011261011c5760206004356101a381610172565b63ffffffff60e01b16636cdb3d1360e11b81149081156101e1575b81156101d0575b506040519015158152f35b6301ffc9a760e01b149050386101c5565b6303a24d0760e21b811491506101be565b919082519283825260005b84811061021e575050826000602080949584010152601f8019910116010190565b806020809284010151828286010152016101fd565b9060206102449281815201906101f2565b90565b3461011c57602036600319011261011c576004358060005260046020526102756002604060002001546108da565b156102a55760005260046020526102a16102956002604060002001610914565b60405191829182610233565b0390f35b60405162461bcd60e51b8152602060048201526014602482015273151bdad95b88191bd95cc81b9bdd08195e1a5cdd60621b6044820152606490fd5b634e487b7160e01b600052604160045260246000fd5b90601f801991011681019081106001600160401b0382111761031857604052565b6102e1565b6040519061032c6080836102f7565b565b6001600160401b03811161031857601f01601f191660200190565b9291926103558261032e565b9161036360405193846102f7565b82948184528183011161011c578281602093846000960137010152565b9080601f8301121561011c5781602061024493359101610349565b3461011c57604036600319011261011c576004356024356001600160401b03811161011c576103ce903690600401610380565b6103d66113ca565b8160005260046020526103f06002604060002001546108da565b1561043f5761043a816102957f6bb7ff708619ba0610cba295a58592e0451dee2622938c8755667688daf3529b936002610434876000526004602052604060002090565b01610d2f565b0390a2005b60405162461bcd60e51b815260206004820152601060248201526f151bdad95b881b9bdd081b5a5b9d195960821b6044820152606490fd5b6001600160401b0381116103185760051b60200190565b9080601f8301121561011c5781356104a581610477565b926104b360405194856102f7565b81845260208085019260051b82010192831161011c57602001905b8282106104db5750505090565b81358152602091820191016104ce565b3461011c5760a036600319011261011c576004356105088161010b565b602435906105158261010b565b6044356001600160401b03811161011c5761053490369060040161048e565b6064356001600160401b03811161011c5761055390369060040161048e565b90608435936001600160401b03851161011c5761057761057d953690600401610380565b93610e00565b005b906020808351928381520192019060005b81811061059d5750505090565b8251845260209384019390920191600101610590565b90602061024492818152019061057f565b3461011c57604036600319011261011c576004356001600160401b03811161011c573660238201121561011c5780600401359061060082610477565b9161060e60405193846102f7565b8083526024602084019160051b8301019136831161011c57602401905b82821061066b57836024356001600160401b03811161011c576102a19161065961065f92369060040161048e565b90610e8c565b604051918291826105b3565b60208091833561067a8161010b565b81520191019061062b565b3461011c57600036600319011261011c5761069e6113ca565b600380546001600160a01b031981169091556000906001600160a01b03167f8be0079c531659141344cd1fd0a4f28419497f9722a3daafe3b4186f6b6457e08280a3005b9181601f8401121561011c578235916001600160401b03831161011c576020808501948460051b01011161011c57565b3461011c5760c036600319011261011c576004356001600160401b03811161011c576107429036906004016106e2565b6024356001600160401b03811161011c576107619036906004016106e2565b6044939193356001600160401b03811161011c576107839036906004016106e2565b6064929192356001600160401b03811161011c576107a59036906004016106e2565b916084356001600160401b03811161011c576107c59036906004016106e2565b95909460a435996001600160401b038b1161011c576107eb61057d9b36906004016106e2565b9a9099610f44565b3461011c57600036600319011261011c576003546040516001600160a01b039091168152602090f35b3461011c57604036600319011261011c576004356108398161010b565b60243580151580820361011c576001600160a01b0383169283156108c5573360009081526001602090815260408083206001600160a01b039094168352929052209060ff801983541691161790557f17307eab39ab6107e8899845ad3d59bd9653f200f220920489ca2b5937696c31604051806108c0339482919091602081019215159052565b0390a3005b62ced3e160e81b600052600060045260246000fd5b90600182811c9216801561090a575b60208310146108f457565b634e487b7160e01b600052602260045260246000fd5b91607f16916108e9565b9060405191826000825492610928846108da565b8084529360018116908115610994575060011461094d575b5061032c925003836102f7565b90506000929192526020600020906000915b81831061097857505090602061032c9282010138610940565b602091935080600191548385890101520191019091849261095f565b90506020925061032c94915060ff191682840152151560051b82010138610940565b3461011c57602036600319011261011c576004356000526004602052610a1d60406000206109e381610914565b90610a396109f360018301610914565b91610a2b6003610a0560028401610914565b920154936040519687966080885260808801906101f2565b9086820360208801526101f2565b9084820360408601526101f2565b9060608301520390f35b3461011c5760c036600319011261011c57600435610a608161010b565b602435906044356001600160401b03811161011c57610a83903690600401610380565b916064356001600160401b03811161011c57610aa3903690600401610380565b608435936001600160401b03851161011c57610ac661057d953690600401610380565b9260a435946110e5565b3461011c57604036600319011261011c57602060ff610b2c600435610af48161010b565b60243590610b018261010b565b60018060a01b03166000526001845260406000209060018060a01b0316600052602052604060002090565b54166040519015158152f35b3461011c5760a036600319011261011c57600435610b558161010b565b602435610b618161010b565b60443590606435926084356001600160401b03811161011c57610b88903690600401610380565b926001600160a01b0382163381141580610c2b575b610c13576001600160a01b03841615610bfd5715610be85761057d94610be060405192600184526020840152604083019160018352606084015260808301604052565b92909161156e565b626a0d4560e21b600052600060045260246000fd5b632bfa23e760e11b600052600060045260246000fd5b63711bec9160e11b6000523360045260245260446000fd5b50600081815260016020908152604080832033845290915290205460ff1615610b9d565b3461011c57602036600319011261011c57600435610c6c8161010b565b610c746113ca565b6001600160a01b03168015610cc757600380546001600160a01b0319811683179091556001600160a01b03167f8be0079c531659141344cd1fd0a4f28419497f9722a3daafe3b4186f6b6457e0600080a3005b631e4fbdf760e01b600052600060045260246000fd5b601f8211610cea57505050565b6000526020600020906020601f840160051c83019310610d25575b601f0160051c01905b818110610d19575050565b60008155600101610d0e565b9091508190610d05565b91909182516001600160401b03811161031857610d5681610d5084546108da565b84610cdd565b6020601f8211600114610d97578190610d88939495600092610d8c575b50508160011b916000199060031b1c19161790565b9055565b015190503880610d73565b601f19821690610dac84600052602060002090565b9160005b818110610de857509583600195969710610dcf575b505050811b019055565b015160001960f88460031b161c19169055388080610dc5565b9192602060018192868b015181550194019201610db0565b939291906001600160a01b0385163381141580610e39575b610c13576001600160a01b03821615610bfd5715610be85761032c9461156e565b50600081815260016020908152604080832033845290915290205460ff1615610e18565b634e487b7160e01b600052603260045260246000fd5b8051821015610e875760209160051b010190565b610e5d565b91909180518351808203610f2d575050805190610ea882610477565b91610eb660405193846102f7565b808352610ec5601f1991610477565b0136602084013760005b8151811015610f265780610f1560019260051b60208082870101519189010151906000918252602082815260408084206001600160a01b03909316845291905290205490565b610f1f8286610e73565b5201610ecf565b5090925050565b635b05999160e01b60005260045260245260446000fd5b9a96989592999497939190610f576113ca565b8a811480611081575b80611078575b8061106f575b80611066575b156110295760005b8b8110610f905750505050505050505050505050565b8b8b8b8f8b8b8b8f938880808f938f908f8f610fb085809492819361108a565b610fb99061109a565b9e610fc39261108a565b359a610fce926110a4565b9a610fda9291956110a4565b96610fe69291956110a4565b96610ff292919561108a565b35963690610fff92610349565b92369061100b92610349565b92369061101792610349565b92611021956110e5565b600101610f7a565b60405162461bcd60e51b8152602060048201526015602482015274082e4e4c2f240d8cadccee8d040dad2e6dac2e8c6d605b1b6044820152606490fd5b50878714610f72565b50868a14610f6c565b50898914610f66565b50888b14610f60565b9190811015610e875760051b0190565b356102448161010b565b9190811015610e875760051b81013590601e198136030182121561011c5701908135916001600160401b03831161011c57602001823603811361011c579190565b949094939192936110f46113ca565b6001600160a01b0381169182156111d5577f6bb7ff708619ba0610cba295a58592e0451dee2622938c8755667688daf3529b956111d0956111c18361117c8b966111607f7cf5ea5242b8a6eb8cab2acc33a0deeb1b650c5122bbf9ecbc8d5e61a37984e497151561120c565b61116c8a511515611258565b8288611176611299565b926113f3565b6111b561118761031d565b8481528560208201528960408201528260608201526111b0886000526004602052604060002090565b6112ae565b604051938493846113aa565b0390a360405191829182610233565b0390a2565b60405162461bcd60e51b815260206004820152600f60248201526e496e76616c6964206164647265737360881b6044820152606490fd5b1561121357565b60405162461bcd60e51b815260206004820152601760248201527f416d6f756e74206d75737420626520706f7369746976650000000000000000006044820152606490fd5b1561125f57565b60405162461bcd60e51b8152602060048201526012602482015271456d707479206d657461646174612055524960701b6044820152606490fd5b604051906112a86020836102f7565b60008252565b9080518051906001600160401b038211610318576112d6826112d086546108da565b86610cdd565b602090601f831160011461133857826060936003959361130c93600092610d8c5750508160011b916000199060031b1c19161790565b84555b611320602082015160018601610d2f565b611331604082015160028601610d2f565b0151910155565b90601f1983169161134e86600052602060002090565b9260005b8181106113925750926001928592606096600398961061137a575b505050811b01845561130f565b015160001983881b60f8161c1916905538808061136d565b92936020600181928786015181550195019301611352565b9392916113c590610a1d6040936060885260608801906101f2565b930152565b6003546001600160a01b031633036113de57565b63118cdaa760e01b6000523360045260246000fd5b6001600160a01b03811693929091908415610bfd5761142f60405192600184526020840152604083019160018352606084015260808301604052565b92815184519081810361155757505060005b82518110156114a0578060019160051b61149861149087611479602080868b010151958c010151946000526000602052604060002090565b9060018060a01b0316600052602052604060002090565b91825461174f565b905501611441565b50929193600182511460001461151b5760208281015184820151604080519283529282015260009133917fc3d58168c5ae7397731d063d5bbf3d657854427343f4c083240f7aacaa2d0f629190a45b805160010361150f579060208061032c9593015191015191600033611964565b61032c9360003361182f565b60006040517f4a39dc06d4c0dbc64b70af90fd698a233a518aa5d07e595d983b8c0526c8f7fb33918061154f888883611772565b0390a46114ef565b635b05999160e01b60005260045260245260446000fd5b94939290919384518251908181036115575750506001600160a01b0386811695861515959185168015159391929060005b8451811015611681578060051b90898988602080868b010151958c010151926115fa575b936001946115d5575b5050500161159f565b6115f091611479611490926000526000602052604060002090565b90553889816115cc565b505090916116168d611479836000526000602052604060002090565b5482811061164a578291898f611641600197968f950391611479856000526000602052604060002090565b559094506115c3565b6040516303dee4c560e01b81526001600160a01b038f16600482015260248101919091526044810183905260648101829052608490fd5b5091989593929790965060018851146000146117155760208881015186820151604080519283529282015233917fc3d58168c5ae7397731d063d5bbf3d657854427343f4c083240f7aacaa2d0f6291a45b6116de575b5050505050565b8451600103611704576020806116fa9601519201519233611964565b38808080806116d7565b6117109491923361182f565b6116fa565b6040517f4a39dc06d4c0dbc64b70af90fd698a233a518aa5d07e595d983b8c0526c8f7fb339180611747898d83611772565b0390a46116d2565b9190820180921161175c57565b634e487b7160e01b600052601160045260246000fd5b90916117896102449360408452604084019061057f565b91602081840391015261057f565b9081602091031261011c575161024481610172565b6001600160a01b0391821681529116602082015260a06040820181905261024494919391926117f192916117e3919086019061057f565b90848203606086015261057f565b9160808184039101526101f2565b3d1561182a573d906118108261032e565b9161181e60405193846102f7565b82523d6000602084013e565b606090565b9091949293853b611843575b505050505050565b60209361186591604051968795869563bc197c8160e01b8752600487016117ac565b038160006001600160a01b0387165af1600091816118fa575b506118ba575061188c6117ff565b80519190826118b357632bfa23e760e11b6000526001600160a01b03821660045260246000fd5b9050602001fd5b6001600160e01b0319166343e6837f60e01b016118dd575038808080808061183b565b632bfa23e760e11b6000526001600160a01b031660045260246000fd5b61191d91925060203d602011611924575b61191581836102f7565b810190611797565b903861187e565b503d61190b565b6001600160a01b039182168152911660208201526040810191909152606081019190915260a060808201819052610244929101906101f2565b9091949293853b61197757505050505050565b60209361199991604051968795869563f23a6e6160e01b87526004870161192b565b038160006001600160a01b0387165af1600091816119e3575b506119c0575061188c6117ff565b6001600160e01b031916630dc5919f60e01b016118dd575038808080808061183b565b6119fd91925060203d6020116119245761191581836102f7565b90386119b256fea26469706673582212205aeb001815b6a1243818a5579b43d793faf6afe9d30af2f01a83ccaa2b53043464736f6c634300081c0033",
  "linkReferences": {},
  "deployedLinkReferences": {}
}