{
  "_format": "hh-sol-artifact-1",
  "contractName": "InvestmentToken",
  "sourceName": "contracts/InvestmentToken.sol",
  "abi": [
    {
      "inputs": [
        {
          "internalType": "string",
          "name": "baseURI",
          "type": "string"
        }
      ],
      "stateMutability": "nonpayable",
      "type": "constructor"
    },
    {
      "inputs": [
        {
          "internalType": "address",
          "name": "sender",
          "type": "address"
        },
        {
          "internalType": "uint256",
          "name": "balance",
          "type": "uint256"
        },
        {
          "internalType": "uint256",
          "name": "needed",
          "type": "uint256"
        },
        {
          "internalType": "uint256",
          "name": "tokenId",
          "type": "uint256"
        }
      ],
      "name": "ERC1155InsufficientBalance",
      "type": "error"
    },
    {
      "inputs": [
        {
          "internalType": "address",
          "name": "approver",
          "type": "address"
        }
      ],
      "name": "ERC1155InvalidApprover",
      "type": "error"
    },
    {
      "inputs": [
        {
          "internalType": "uint256",
          "name": "idsLength",
          "type": "uint256"
        },
        {
          "internalType": "uint256",
          "name": "valuesLength",
          "type": "uint256"
        }
      ],
      "name": "ERC1155InvalidArrayLength",
      "type": "error"
    },
    {
      "inputs": [
        {
          "internalType": "address",
          "name": "operator",
          "type": "address"
        }
      ],
      "name": "ERC1155InvalidOperator",
      "type": "error"
    },
    {
      "inputs": [
        {
          "internalType": "address",
          "name": "receiver",
          "type": "address"
        }
      ],
      "name": "ERC1155InvalidReceiver",
      "type": "error"
    },
    {
      "inputs": [
        {
          "internalType": "address",
          "name": "sender",
          "type": "address"
        }
      ],
      "name": "ERC1155InvalidSender",
      "type": "error"
    },
    {
      "inputs": [
        {
          "internalType": "address",
          "name": "operator",
          "type": "address"
        },
        {
          "internalType": "address",
          "name": "owner",
          "type": "address"
        }
      ],
      "name": "ERC1155MissingApprovalForAll",
      "type": "error"
    },
    {
      "inputs": [
        {
          "internalType": "address",
          "name": "owner",
          "type": "address"
        }
      ],
      "name": "OwnableInvalidOwner",
      "type": "error"
    },
    {
      "inputs": [
        {
          "internalType": "address",
          "name": "account",
          "type": "address"
        }
      ],
      "name": "OwnableUnauthorizedAccount",
      "type": "error"
    },
    {
      "anonymous": false,
      "inputs": [
        {
          "indexed": true,
          "internalType": "address",
          "name": "account",
          "type": "address"
        },
        {
          "indexed": true,
          "internalType": "address",
          "name": "operator",
          "type": "address"
        },
        {
          "indexed": false,
          "internalType": "bool",
          "name": "approved",
          "type": "bool"
        }
      ],
      "name": "ApprovalForAll",
      "type": "event"
    },
    {
      "anonymous": false,
      "inputs": [
        {
          "indexed": true,
          "internalType": "uint256",
          "name": "tokenId",
          "type": "uint256"
        },
        {
          "indexed": false,
          "internalType": "string",
          "name": "newURI",
          "type": "string"
        }
      ],
      "name": "MetadataUpdated",
      "type": "event"
    },
    {
      "anonymous": false,
      "inputs": [
        {
          "indexed": true,
          "internalType": "address",
          "name": "previousOwner",
          "type": "address"
        },
        {
          "indexed": true,
          "internalType": "address",
          "name": "newOwner",
          "type": "address"
        }
      ],
      "name": "OwnershipTransferred",
      "type": "event"
    },
    {
      "anonymous": false,
      "inputs": [
        {
          "indexed": true,
          "internalType": "address",
          "name": "investor",
          "type": "address"
        },
        {
          "indexed": true,
          "internalType": "uint256",
          "name": "tokenId",
          "type": "uint256"
        },
        {
          "indexed": true,
          "internalType": "string",
          "name": "campaignId",
          "type": "string"
        },
        {
          "indexed": false,
          "internalType": "uint256",
          "name": "amount",
          "type": "uint256"
        },
        {
          "indexed": false,
          "internalType": "string",
          "name": "metadataURI",
          "type": "string"
        }
      ],
      "name": "TokenMinted",
      "type": "event"
    },
    {
      "anonymous": false,
      "inputs": [
        {
          "indexed": true,
          "internalType": "address",
          "name": "operator",
          "type": "address"
        },
        {
          "indexed": true,
          "internalType": "address",
          "name": "from",
          "type": "address"
        },
        {
          "indexed": true,
          "internalType": "address",
          "name": "to",
          "type": "address"
        },
        {
          "indexed": false,
          "internalType": "uint256[]",
          "name": "ids",
          "type": "uint256[]"
        },
        {
          "indexed": false,
          "internalType": "uint256[]",
          "name": "values",
          "type": "uint256[]"
        }
      ],
      "name": "TransferBatch",
      "type": "event"
    },
    {
      "anonymous": false,
      "inputs": [
        {
          "indexed": true,
          "internalType": "address",
          "name": "operator",
          "type": "address"
        },
        {
          "indexed": true,
          "internalType": "address",
          "name": "from",
          "type": "address"
        },
        {
          "indexed": true,
          "internalType": "address",
          "name": "to",
          "type": "address"
        },
        {
          "indexed": false,
          "internalType": "uint256",
          "name": "id",
          "type": "uint256"
        },
        {
          "indexed": false,
          "internalType": "uint256",
          "name": "value",
          "type": "uint256"
        }
      ],
      "name": "TransferSingle",
      "type": "event"
    },
    {
      "anonymous": false,
      "inputs": [
        {
          "indexed": false,
          "internalType": "string",
          "name": "value",
          "type": "string"
        },
        {
          "indexed": true,
          "internalType": "uint256",
          "name": "id",
          "type": "uint256"
        }
      ],
      "name": "URI",
      "type": "event"
    },
    {
      "inputs": [
        {
          "internalType": "address",
          "name": "account",
          "type": "address"
        },
        {
          "internalType": "uint256",
          "name": "id",
          "type": "uint256"
        }
      ],
      "name": "balanceOf",
      "outputs": [
        {
          "internalType": "uint256",
          "name": "",
          "type": "uint256"
        }
      ],
      "stateMutability": "view",
      "type": "function"
    },
    {
      "inputs": [
        {
          "internalType": "address[]",
          "name": "accounts",
          "type": "address[]"
        },
        {
          "internalType": "uint256[]",
          "name": "ids",
          "type": "uint256[]"
        }
      ],
      "name": "balanceOfBatch",
      "outputs": [
        {
          "internalType": "uint256[]",
          "name": "",
          "type": "uint256[]"
        }
      ],
      "stateMutability": "view",
      "type": "function"
    },
    {
      "inputs": [
        {
          "internalType": "uint256",
          "name": "tokenId",
          "type": "uint256"
        }
      ],
      "name": "exists",
      "outputs": [
        {
          "internalType": "bool",
          "name": "",
          "type": "bool"
        }
      ],
      "stateMutability": "view",
      "type": "function"
    },
    {
      "inputs": [
        {
          "internalType": "string",
          "name": "campaignId",
          "type": "string"
        }
      ],
      "name": "getCampaignTokens",
      "outputs": [
        {
          "internalType": "uint256[]",
          "name": "",
          "type": "uint256[]"
        }
      ],
      "stateMutability": "view",
      "type": "function"
    },
    {
      "inputs": [
        {
          "internalType": "address",
          "name": "investor",
          "type": "address"
        }
      ],
      "name": "getInvestorTokens",
      "outputs": [
        {
          "internalType": "uint256[]",
          "name": "",
          "type": "uint256[]"
        }
      ],
      "stateMutability": "view",
      "type": "function"
    },
    {
      "inputs": [
        {
          "internalType": "address",
          "name": "account",
          "type": "address"
        },
        {
          "internalType": "address",
          "name": "operator",
          "type": "address"
        }
      ],
      "name": "isApprovedForAll",
      "outputs": [
        {
          "internalType": "bool",
          "name": "",
          "type": "bool"
        }
      ],
      "stateMutability": "view",
      "type": "function"
    },
    {
      "inputs": [
        {
          "internalType": "address",
          "name": "investor",
          "type": "address"
        },
        {
          "internalType": "string",
          "name": "campaignId",
          "type": "string"
        },
        {
          "internalType": "string",
          "name": "symbol",
          "type": "string"
        },
        {
          "internalType": "string",
          "name": "name",
          "type": "string"
        },
        {
          "internalType": "string",
          "name": "metadataURI",
          "type": "string"
        },
        {
          "internalType": "uint256",
          "name": "amount",
          "type": "uint256"
        }
      ],
      "name": "mintInvestmentToken",
      "outputs": [
        {
          "internalType": "uint256",
          "name": "",
          "type": "uint256"
        }
      ],
      "stateMutability": "nonpayable",
      "type": "function"
    },
    {
      "inputs": [],
      "name": "owner",
      "outputs": [
        {
          "internalType": "address",
          "name": "",
          "type": "address"
        }
      ],
      "stateMutability": "view",
      "type": "function"
    },
    {
      "inputs": [],
      "name": "renounceOwnership",
      "outputs": [],
      "stateMutability": "nonpayable",
      "type": "function"
    },
    {
      "inputs": [
        {
          "internalType": "address",
          "name": "from",
          "type": "address"
        },
        {
          "internalType": "address",
          "name": "to",
          "type": "address"
        },
        {
          "internalType": "uint256[]",
          "name": "ids",
          "type": "uint256[]"
        },
        {
          "internalType": "uint256[]",
          "name": "amounts",
          "type": "uint256[]"
        },
        {
          "internalType": "bytes",
          "name": "data",
          "type": "bytes"
        }
      ],
      "name": "safeBatchTransferFrom",
      "outputs": [],
      "stateMutability": "nonpayable",
      "type": "function"
    },
    {
      "inputs": [
        {
          "internalType": "address",
          "name": "from",
          "type": "address"
        },
        {
          "internalType": "address",
          "name": "to",
          "type": "address"
        },
        {
          "internalType": "uint256",
          "name": "id",
          "type": "uint256"
        },
        {
          "internalType": "uint256",
          "name": "amount",
          "type": "uint256"
        },
        {
          "internalType": "bytes",
          "name": "data",
          "type": "bytes"
        }
      ],
      "name": "safeTransferFrom",
      "outputs": [],
      "stateMutability": "nonpayable",
      "type": "function"
    },
    {
      "inputs": [
        {
          "internalType": "address",
          "name": "operator",
          "type": "address"
        },
        {
          "internalType": "bool",
          "name": "approved",
          "type": "bool"
        }
      ],
      "name": "setApprovalForAll",
      "outputs": [],
      "stateMutability": "nonpayable",
      "type": "function"
    },
    {
      "inputs": [
        {
          "internalType": "bytes4",
          "name": "interfaceId",
          "type": "bytes4"
        }
      ],
      "name": "supportsInterface",
      "outputs": [
        {
          "internalType": "bool",
          "name": "",
          "type": "bool"
        }
      ],
      "stateMutability": "view",
      "type": "function"
    },
    {
      "inputs": [
        {
          "internalType": "uint256",
          "name": "",
          "type": "uint256"
        }
      ],
      "name": "tokenData",
      "outputs": [
        {
          "internalType": "string",
          "name": "campaignId",
          "type": "string"
        },
        {
          "internalType": "string",
          "name": "symbol",
          "type": "string"
        },
        {
          "internalType": "string",
          "name": "name",
          "type": "string"
        },
        {
          "internalType": "string",
          "name": "metadataURI",
          "type": "string"
        },
        {
          "internalType": "uint256",
          "name": "createdAt",
          "type": "uint256"
        },
        {
          "internalType": "address",
          "name": "campaignOwner",
          "type": "address"
        }
      ],
      "stateMutability": "view",
      "type": "function"
    },
    {
      "inputs": [
        {
          "internalType": "address",
          "name": "newOwner",
          "type": "address"
        }
      ],
      "name": "transferOwnership",
      "outputs": [],
      "stateMutability": "nonpayable",
      "type": "function"
    },
    {
      "inputs": [
        {
          "internalType": "uint256",
          "name": "tokenId",
          "type": "uint256"
        },
        {
          "internalType": "string",
          "name": "newURI",
          "type": "string"
        }
      ],
      "name": "updateTokenURI",
      "outputs": [],
      "stateMutability": "nonpayable",
      "type": "function"
    },
    {
      "inputs": [
        {
          "internalType": "uint256",
          "name": "tokenId",
          "type": "uint256"
        }
      ],
      "name": "uri",
      "outputs": [
        {
          "internalType": "string",
          "name": "",
          "type": "string"
        }
      ],
      "stateMutability": "view",
      "type": "function"
    }
  ],
  "bytecode": "0x6080604052600160045534801561001557600080fd5b50604051613e27380380613e278339818101604052810190610037919061031f565b3381610048816100d160201b60201c565b50600073ffffffffffffffffffffffffffffffffffffffff168173ffffffffffffffffffffffffffffffffffffffff16036100bb5760006040517f1e4fbdf70000000000000000000000000000000000000000000000000000000081526004016100b291906103a9565b60405180910390fd5b6100ca816100e460201b60201c565b50506106b7565b80600290816100e091906105e5565b5050565b6000600360009054906101000a900473ffffffffffffffffffffffffffffffffffffffff16905081600360006101000a81548173ffffffffffffffffffffffffffffffffffffffff021916908373ffffffffffffffffffffffffffffffffffffffff1602179055508173ffffffffffffffffffffffffffffffffffffffff168173ffffffffffffffffffffffffffffffffffffffff167f8be0079c531659141344cd1fd0a4f28419497f9722a3daafe3b4186f6b6457e060405160405180910390a35050565b6000604051905090565b600080fd5b600080fd5b600080fd5b600080fd5b6000601f19601f8301169050919050565b7f4e487b7100000000000000000000000000000000000000000000000000000000600052604160045260246000fd5b610211826101c8565b810181811067ffffffffffffffff821117156102305761022f6101d9565b5b80604052505050565b60006102436101aa565b905061024f8282610208565b919050565b600067ffffffffffffffff82111561026f5761026e6101d9565b5b610278826101c8565b9050602081019050919050565b60005b838110156102a3578082015181840152602081019050610288565b60008484015250505050565b60006102c26102bd84610254565b610239565b9050828152602081018484840111156102de576102dd6101c3565b5b6102e9848285610285565b509392505050565b600082601f830112610306576103056101be565b5b81516103168482602086016102af565b91505092915050565b600060208284031215610335576103346101b4565b5b600082015167ffffffffffffffff811115610353576103526101b9565b5b61035f848285016102f1565b91505092915050565b600073ffffffffffffffffffffffffffffffffffffffff82169050919050565b600061039382610368565b9050919050565b6103a381610388565b82525050565b60006020820190506103be600083018461039a565b92915050565b600081519050919050565b7f4e487b7100000000000000000000000000000000000000000000000000000000600052602260045260246000fd5b6000600282049050600182168061041657607f821691505b602082108103610429576104286103cf565b5b50919050565b60008190508160005260206000209050919050565b60006020601f8301049050919050565b600082821b905092915050565b6000600883026104917fffffffffffffffffffffffffffffffffffffffffffffffffffffffffffffffff82610454565b61049b8683610454565b95508019841693508086168417925050509392505050565b6000819050919050565b6000819050919050565b60006104e26104dd6104d8846104b3565b6104bd565b6104b3565b9050919050565b6000819050919050565b6104fc836104c7565b610510610508826104e9565b848454610461565b825550505050565b600090565b610525610518565b6105308184846104f3565b505050565b5b818110156105545761054960008261051d565b600181019050610536565b5050565b601f8211156105995761056a8161042f565b61057384610444565b81016020851015610582578190505b61059661058e85610444565b830182610535565b50505b505050565b600082821c905092915050565b60006105bc6000198460080261059e565b1980831691505092915050565b60006105d583836105ab565b9150826002028217905092915050565b6105ee826103c4565b67ffffffffffffffff811115610607576106066101d9565b5b61061182546103fe565b61061c828285610558565b600060209050601f83116001811461064f576000841561063d578287015190505b61064785826105c9565b8655506106af565b601f19841661065d8661042f565b60005b8281101561068557848901518255600182019150602085019450602081019050610660565b868310156106a2578489015161069e601f8916826105ab565b8355505b6001600288020188555050505b505050505050565b613761806106c66000396000f3fe608060405234801561001057600080fd5b506004361061010a5760003560e01c8063696c5639116100a2578063b4b5b48f11610071578063b4b5b48f146102db578063cdfcd94614610310578063e985e9c514610340578063f242432a14610370578063f2fde38b1461038c5761010a565b8063696c563914610267578063715018a6146102975780638da5cb5b146102a1578063a22cb465146102bf5761010a565b806324d95fe1116100de57806324d95fe1146101bb5780632eb2c2d6146101eb5780634e1273f4146102075780634f558e79146102375761010a565b8062fdd58e1461010f57806301ffc9a71461013f5780630e89341c1461016f57806318e97fd11461019f575b600080fd5b61012960048036038101906101249190612299565b6103a8565b60405161013691906122e8565b60405180910390f35b6101596004803603810190610154919061235b565b610402565b60405161016691906123a3565b60405180910390f35b610189600480360381019061018491906123be565b6104e4565b604051610196919061247b565b60405180910390f35b6101b960048036038101906101b491906125d2565b6105d4565b005b6101d560048036038101906101d0919061262e565b610759565b6040516101e29190612735565b60405180910390f35b610205600480360381019061020091906128c0565b6107cf565b005b610221600480360381019061021c9190612a52565b610822565b60405161022e9190612735565b60405180910390f35b610251600480360381019061024c91906123be565b61092b565b60405161025e91906123a3565b60405180910390f35b610281600480360381019061027c9190612aca565b610959565b60405161028e9190612735565b60405180910390f35b61029f6109f0565b005b6102a9610a04565b6040516102b69190612b06565b60405180910390f35b6102d960048036038101906102d49190612b4d565b610a2e565b005b6102f560048036038101906102f091906123be565b610a44565b60405161030796959493929190612b8d565b60405180910390f35b61032a60048036038101906103259190612c0a565b610cc0565b60405161033791906122e8565b60405180910390f35b61035a60048036038101906103559190612d07565b611018565b60405161036791906123a3565b60405180910390f35b61038a60048036038101906103859190612d47565b6110ac565b005b6103a660048036038101906103a19190612aca565b6110cb565b005b600080600083815260200190815260200160002060008473ffffffffffffffffffffffffffffffffffffffff1673ffffffffffffffffffffffffffffffffffffffff16815260200190815260200160002054905092915050565b60007fd9b67a26000000000000000000000000000000000000000000000000000000007bffffffffffffffffffffffffffffffffffffffffffffffffffffffff1916827bffffffffffffffffffffffffffffffffffffffffffffffffffffffff191614806104cd57507f0e89341c000000000000000000000000000000000000000000000000000000007bffffffffffffffffffffffffffffffffffffffffffffffffffffffff1916827bffffffffffffffffffffffffffffffffffffffffffffffffffffffff1916145b806104dd57506104dc82611151565b5b9050919050565b60606104ef8261092b565b61052e576040517f08c379a000000000000000000000000000000000000000000000000000000000815260040161052590612e2a565b60405180910390fd5b60056000838152602001908152602001600020600301805461054f90612e79565b80601f016020809104026020016040519081016040528092919081815260200182805461057b90612e79565b80156105c85780601f1061059d576101008083540402835291602001916105c8565b820191906000526020600020905b8154815290600101906020018083116105ab57829003601f168201915b50505050509050919050565b6000815111610618576040517f08c379a000000000000000000000000000000000000000000000000000000000815260040161060f90612ef6565b60405180910390fd5b6005600083815260200190815260200160002060050160009054906101000a900473ffffffffffffffffffffffffffffffffffffffff1673ffffffffffffffffffffffffffffffffffffffff163373ffffffffffffffffffffffffffffffffffffffff1614806106ba575061068b610a04565b73ffffffffffffffffffffffffffffffffffffffff163373ffffffffffffffffffffffffffffffffffffffff16145b6106f9576040517f08c379a00000000000000000000000000000000000000000000000000000000081526004016106f090612f62565b60405180910390fd5b8060056000848152602001908152602001600020600301908161071c919061312e565b50817f459157ba24c7ab9878b165ef465fa6ae2ab42bcd8445f576be378768b0c473098260405161074d919061247b565b60405180910390a25050565b606060068260405161076b919061323c565b90815260200160405180910390208054806020026020016040519081016040528092919081815260200182805480156107c357602002820191906000526020600020905b8154815260200190600101908083116107af575b50505050509050919050565b6107dc85858585856111bb565b60005b835181101561081a5761080d8686868481518110610800576107ff613253565b5b6020026020010151611263565b80806001019150506107df565b505050505050565b6060815183511461086e57815183516040517f5b059991000000000000000000000000000000000000000000000000000000008152600401610865929190613282565b60405180910390fd5b6000835167ffffffffffffffff81111561088b5761088a6124a7565b5b6040519080825280602002602001820160405280156108b95781602001602082028036833780820191505090505b50905060005b8451811015610920576108f66108de82876113ce90919063ffffffff16565b6108f183876113e290919063ffffffff16565b6103a8565b82828151811061090957610908613253565b5b6020026020010181815250508060010190506108bf565b508091505092915050565b60008060056000848152602001908152602001600020600001805461094f90612e79565b9050119050919050565b6060600760008373ffffffffffffffffffffffffffffffffffffffff1673ffffffffffffffffffffffffffffffffffffffff1681526020019081526020016000208054806020026020016040519081016040528092919081815260200182805480156109e457602002820191906000526020600020905b8154815260200190600101908083116109d0575b50505050509050919050565b6109f86113f6565b610a02600061147d565b565b6000600360009054906101000a900473ffffffffffffffffffffffffffffffffffffffff16905090565b610a40610a39611543565b838361154b565b5050565b6005602052806000526040600020600091509050806000018054610a6790612e79565b80601f0160208091040260200160405190810160405280929190818152602001828054610a9390612e79565b8015610ae05780601f10610ab557610100808354040283529160200191610ae0565b820191906000526020600020905b815481529060010190602001808311610ac357829003601f168201915b505050505090806001018054610af590612e79565b80601f0160208091040260200160405190810160405280929190818152602001828054610b2190612e79565b8015610b6e5780601f10610b4357610100808354040283529160200191610b6e565b820191906000526020600020905b815481529060010190602001808311610b5157829003601f168201915b505050505090806002018054610b8390612e79565b80601f0160208091040260200160405190810160405280929190818152602001828054610baf90612e79565b8015610bfc5780601f10610bd157610100808354040283529160200191610bfc565b820191906000526020600020905b815481529060010190602001808311610bdf57829003601f168201915b505050505090806003018054610c1190612e79565b80601f0160208091040260200160405190810160405280929190818152602001828054610c3d90612e79565b8015610c8a5780601f10610c5f57610100808354040283529160200191610c8a565b820191906000526020600020905b815481529060010190602001808311610c6d57829003601f168201915b5050505050908060040154908060050160009054906101000a900473ffffffffffffffffffffffffffffffffffffffff16905086565b6000610cca6113f6565b600073ffffffffffffffffffffffffffffffffffffffff168773ffffffffffffffffffffffffffffffffffffffff1603610d39576040517f08c379a0000000000000000000000000000000000000000000000000000000008152600401610d30906132f7565b60405180910390fd5b6000865111610d7d576040517f08c379a0000000000000000000000000000000000000000000000000000000008152600401610d7490613363565b60405180910390fd5b60008211610dc0576040517f08c379a0000000000000000000000000000000000000000000000000000000008152600401610db7906133cf565b60405180910390fd5b600060046000815480929190610dd59061341e565b919050559050610df6888285604051806020016040528060008152506116bb565b6040518060c001604052808881526020018781526020018681526020018581526020014281526020013373ffffffffffffffffffffffffffffffffffffffff16815250600560008381526020019081526020016000206000820151816000019081610e61919061312e565b506020820151816001019081610e77919061312e565b506040820151816002019081610e8d919061312e565b506060820151816003019081610ea3919061312e565b506080820151816004015560a08201518160050160006101000a81548173ffffffffffffffffffffffffffffffffffffffff021916908373ffffffffffffffffffffffffffffffffffffffff160217905550905050600687604051610f08919061323c565b9081526020016040518091039020819080600181540180825580915050600190039060005260206000200160009091909190915055600760008973ffffffffffffffffffffffffffffffffffffffff1673ffffffffffffffffffffffffffffffffffffffff16815260200190815260200160002081908060018154018082558091505060019003906000526020600020016000909190919091505586604051610fb1919061323c565b6040518091039020818973ffffffffffffffffffffffffffffffffffffffff167fcf21f23c348c193470b4df9a0d589fed2fd3b1cc2d2eb7dab75d09aba00126fe8688604051611002929190613466565b60405180910390a4809150509695505050505050565b6000600160008473ffffffffffffffffffffffffffffffffffffffff1673ffffffffffffffffffffffffffffffffffffffff16815260200190815260200160002060008373ffffffffffffffffffffffffffffffffffffffff1673ffffffffffffffffffffffffffffffffffffffff16815260200190815260200160002060009054906101000a900460ff16905092915050565b6110b98585858585611754565b6110c4858585611263565b5050505050565b6110d36113f6565b600073ffffffffffffffffffffffffffffffffffffffff168173ffffffffffffffffffffffffffffffffffffffff16036111455760006040517f1e4fbdf700000000000000000000000000000000000000000000000000000000815260040161113c9190612b06565b60405180910390fd5b61114e8161147d565b50565b60007f01ffc9a7000000000000000000000000000000000000000000000000000000007bffffffffffffffffffffffffffffffffffffffffffffffffffffffff1916827bffffffffffffffffffffffffffffffffffffffffffffffffffffffff1916149050919050565b60006111c5611543565b90508073ffffffffffffffffffffffffffffffffffffffff168673ffffffffffffffffffffffffffffffffffffffff161415801561120a57506112088682611018565b155b1561124e5780866040517fe237d922000000000000000000000000000000000000000000000000000000008152600401611245929190613496565b60405180910390fd5b61125b86868686866117fc565b505050505050565b6000600760008573ffffffffffffffffffffffffffffffffffffffff1673ffffffffffffffffffffffffffffffffffffffff168152602001908152602001600020905060005b818054905081101561136157828282815481106112c9576112c8613253565b5b9060005260206000200154036113545781600183805490506112eb91906134bf565b815481106112fc576112fb613253565b5b906000526020600020015482828154811061131a57611319613253565b5b906000526020600020018190555081805480611339576113386134f3565b5b60019003818190600052602060002001600090559055611361565b80806001019150506112a9565b50600760008473ffffffffffffffffffffffffffffffffffffffff1673ffffffffffffffffffffffffffffffffffffffff16815260200190815260200160002082908060018154018082558091505060019003906000526020600020016000909190919091505550505050565b600060208202602084010151905092915050565b600060208202602084010151905092915050565b6113fe611543565b73ffffffffffffffffffffffffffffffffffffffff1661141c610a04565b73ffffffffffffffffffffffffffffffffffffffff161461147b5761143f611543565b6040517f118cdaa70000000000000000000000000000000000000000000000000000000081526004016114729190612b06565b60405180910390fd5b565b6000600360009054906101000a900473ffffffffffffffffffffffffffffffffffffffff16905081600360006101000a81548173ffffffffffffffffffffffffffffffffffffffff021916908373ffffffffffffffffffffffffffffffffffffffff1602179055508173ffffffffffffffffffffffffffffffffffffffff168173ffffffffffffffffffffffffffffffffffffffff167f8be0079c531659141344cd1fd0a4f28419497f9722a3daafe3b4186f6b6457e060405160405180910390a35050565b600033905090565b600073ffffffffffffffffffffffffffffffffffffffff168273ffffffffffffffffffffffffffffffffffffffff16036115bd5760006040517fced3e1000000000000000000000000000000000000000000000000000000000081526004016115b49190612b06565b60405180910390fd5b80600160008573ffffffffffffffffffffffffffffffffffffffff1673ffffffffffffffffffffffffffffffffffffffff16815260200190815260200160002060008473ffffffffffffffffffffffffffffffffffffffff1673ffffffffffffffffffffffffffffffffffffffff16815260200190815260200160002060006101000a81548160ff0219169083151502179055508173ffffffffffffffffffffffffffffffffffffffff168373ffffffffffffffffffffffffffffffffffffffff167f17307eab39ab6107e8899845ad3d59bd9653f200f220920489ca2b5937696c31836040516116ae91906123a3565b60405180910390a3505050565b600073ffffffffffffffffffffffffffffffffffffffff168473ffffffffffffffffffffffffffffffffffffffff160361172d5760006040517f57f447ce0000000000000000000000000000000000000000000000000000000081526004016117249190612b06565b60405180910390fd5b60008061173a85856118f4565b9150915061174c600087848487611924565b505050505050565b600061175e611543565b90508073ffffffffffffffffffffffffffffffffffffffff168673ffffffffffffffffffffffffffffffffffffffff16141580156117a357506117a18682611018565b155b156117e75780866040517fe237d9220000000000000000000000000000000000000000000000000000000081526004016117de929190613496565b60405180910390fd5b6117f486868686866119d6565b505050505050565b600073ffffffffffffffffffffffffffffffffffffffff168473ffffffffffffffffffffffffffffffffffffffff160361186e5760006040517f57f447ce0000000000000000000000000000000000000000000000000000000081526004016118659190612b06565b60405180910390fd5b600073ffffffffffffffffffffffffffffffffffffffff168573ffffffffffffffffffffffffffffffffffffffff16036118e05760006040517f01a835140000000000000000000000000000000000000000000000000000000081526004016118d79190612b06565b60405180910390fd5b6118ed8585858585611924565b5050505050565b60608060405191506001825283602083015260408201905060018152826020820152604081016040529250929050565b61193085858585611ae1565b600073ffffffffffffffffffffffffffffffffffffffff168473ffffffffffffffffffffffffffffffffffffffff16146119cf57600061196e611543565b905060018451036119be57600061198f6000866113e290919063ffffffff16565b905060006119a76000866113e290919063ffffffff16565b90506119b7838989858589611e89565b50506119cd565b6119cc81878787878761203d565b5b505b5050505050565b600073ffffffffffffffffffffffffffffffffffffffff168473ffffffffffffffffffffffffffffffffffffffff1603611a485760006040517f57f447ce000000000000000000000000000000000000000000000000000000008152600401611a3f9190612b06565b60405180910390fd5b600073ffffffffffffffffffffffffffffffffffffffff168573ffffffffffffffffffffffffffffffffffffffff1603611aba5760006040517f01a83514000000000000000000000000000000000000000000000000000000008152600401611ab19190612b06565b60405180910390fd5b600080611ac785856118f4565b91509150611ad88787848487611924565b50505050505050565b8051825114611b2b57815181516040517f5b059991000000000000000000000000000000000000000000000000000000008152600401611b22929190613282565b60405180910390fd5b6000611b35611543565b905060005b8351811015611d44576000611b5882866113e290919063ffffffff16565b90506000611b6f83866113e290919063ffffffff16565b9050600073ffffffffffffffffffffffffffffffffffffffff168873ffffffffffffffffffffffffffffffffffffffff1614611c9c57600080600084815260200190815260200160002060008a73ffffffffffffffffffffffffffffffffffffffff1673ffffffffffffffffffffffffffffffffffffffff16815260200190815260200160002054905081811015611c4457888183856040517f03dee4c5000000000000000000000000000000000000000000000000000000008152600401611c3b9493929190613522565b60405180910390fd5b81810360008085815260200190815260200160002060008b73ffffffffffffffffffffffffffffffffffffffff1673ffffffffffffffffffffffffffffffffffffffff16815260200190815260200160002081905550505b600073ffffffffffffffffffffffffffffffffffffffff168773ffffffffffffffffffffffffffffffffffffffff1614611d37578060008084815260200190815260200160002060008973ffffffffffffffffffffffffffffffffffffffff1673ffffffffffffffffffffffffffffffffffffffff1681526020019081526020016000206000828254611d2f9190613567565b925050819055505b5050806001019050611b3a565b506001835103611e03576000611d646000856113e290919063ffffffff16565b90506000611d7c6000856113e290919063ffffffff16565b90508573ffffffffffffffffffffffffffffffffffffffff168773ffffffffffffffffffffffffffffffffffffffff168473ffffffffffffffffffffffffffffffffffffffff167fc3d58168c5ae7397731d063d5bbf3d657854427343f4c083240f7aacaa2d0f628585604051611df4929190613282565b60405180910390a45050611e82565b8373ffffffffffffffffffffffffffffffffffffffff168573ffffffffffffffffffffffffffffffffffffffff168273ffffffffffffffffffffffffffffffffffffffff167f4a39dc06d4c0dbc64b70af90fd698a233a518aa5d07e595d983b8c0526c8f7fb8686604051611e7992919061359b565b60405180910390a45b5050505050565b60008473ffffffffffffffffffffffffffffffffffffffff163b1115612035578373ffffffffffffffffffffffffffffffffffffffff1663f23a6e6187878686866040518663ffffffff1660e01b8152600401611eea959493929190613627565b6020604051808303816000875af1925050508015611f2657506040513d601f19601f82011682018060405250810190611f239190613696565b60015b611faa573d8060008114611f56576040519150601f19603f3d011682016040523d82523d6000602084013e611f5b565b606091505b506000815103611fa257846040517f57f447ce000000000000000000000000000000000000000000000000000000008152600401611f999190612b06565b60405180910390fd5b805181602001fd5b63f23a6e6160e01b7bffffffffffffffffffffffffffffffffffffffffffffffffffffffff1916817bffffffffffffffffffffffffffffffffffffffffffffffffffffffff19161461203357846040517f57f447ce00000000000000000000000000000000000000000000000000000000815260040161202a9190612b06565b60405180910390fd5b505b505050505050565b60008473ffffffffffffffffffffffffffffffffffffffff163b11156121e9578373ffffffffffffffffffffffffffffffffffffffff1663bc197c8187878686866040518663ffffffff1660e01b815260040161209e9594939291906136c3565b6020604051808303816000875af19250505080156120da57506040513d601f19601f820116820180604052508101906120d79190613696565b60015b61215e573d806000811461210a576040519150601f19603f3d011682016040523d82523d6000602084013e61210f565b606091505b50600081510361215657846040517f57f447ce00000000000000000000000000000000000000000000000000000000815260040161214d9190612b06565b60405180910390fd5b805181602001fd5b63bc197c8160e01b7bffffffffffffffffffffffffffffffffffffffffffffffffffffffff1916817bffffffffffffffffffffffffffffffffffffffffffffffffffffffff1916146121e757846040517f57f447ce0000000000000000000000000000000000000000000000000000000081526004016121de9190612b06565b60405180910390fd5b505b505050505050565b6000604051905090565b600080fd5b600080fd5b600073ffffffffffffffffffffffffffffffffffffffff82169050919050565b600061223082612205565b9050919050565b61224081612225565b811461224b57600080fd5b50565b60008135905061225d81612237565b92915050565b6000819050919050565b61227681612263565b811461228157600080fd5b50565b6000813590506122938161226d565b92915050565b600080604083850312156122b0576122af6121fb565b5b60006122be8582860161224e565b92505060206122cf85828601612284565b9150509250929050565b6122e281612263565b82525050565b60006020820190506122fd60008301846122d9565b92915050565b60007fffffffff0000000000000000000000000000000000000000000000000000000082169050919050565b61233881612303565b811461234357600080fd5b50565b6000813590506123558161232f565b92915050565b600060208284031215612371576123706121fb565b5b600061237f84828501612346565b91505092915050565b60008115159050919050565b61239d81612388565b82525050565b60006020820190506123b86000830184612394565b92915050565b6000602082840312156123d4576123d36121fb565b5b60006123e284828501612284565b91505092915050565b600081519050919050565b600082825260208201905092915050565b60005b8381101561242557808201518184015260208101905061240a565b60008484015250505050565b6000601f19601f8301169050919050565b600061244d826123eb565b61245781856123f6565b9350612467818560208601612407565b61247081612431565b840191505092915050565b600060208201905081810360008301526124958184612442565b905092915050565b600080fd5b600080fd5b7f4e487b7100000000000000000000000000000000000000000000000000000000600052604160045260246000fd5b6124df82612431565b810181811067ffffffffffffffff821117156124fe576124fd6124a7565b5b80604052505050565b60006125116121f1565b905061251d82826124d6565b919050565b600067ffffffffffffffff82111561253d5761253c6124a7565b5b61254682612431565b9050602081019050919050565b82818337600083830152505050565b600061257561257084612522565b612507565b905082815260208101848484011115612591576125906124a2565b5b61259c848285612553565b509392505050565b600082601f8301126125b9576125b861249d565b5b81356125c9848260208601612562565b91505092915050565b600080604083850312156125e9576125e86121fb565b5b60006125f785828601612284565b925050602083013567ffffffffffffffff81111561261857612617612200565b5b612624858286016125a4565b9150509250929050565b600060208284031215612644576126436121fb565b5b600082013567ffffffffffffffff81111561266257612661612200565b5b61266e848285016125a4565b91505092915050565b600081519050919050565b600082825260208201905092915050565b6000819050602082019050919050565b6126ac81612263565b82525050565b60006126be83836126a3565b60208301905092915050565b6000602082019050919050565b60006126e282612677565b6126ec8185612682565b93506126f783612693565b8060005b8381101561272857815161270f88826126b2565b975061271a836126ca565b9250506001810190506126fb565b5085935050505092915050565b6000602082019050818103600083015261274f81846126d7565b905092915050565b600067ffffffffffffffff821115612772576127716124a7565b5b602082029050602081019050919050565b600080fd5b600061279b61279684612757565b612507565b905080838252602082019050602084028301858111156127be576127bd612783565b5b835b818110156127e757806127d38882612284565b8452602084019350506020810190506127c0565b5050509392505050565b600082601f8301126128065761280561249d565b5b8135612816848260208601612788565b91505092915050565b600067ffffffffffffffff82111561283a576128396124a7565b5b61284382612431565b9050602081019050919050565b600061286361285e8461281f565b612507565b90508281526020810184848401111561287f5761287e6124a2565b5b61288a848285612553565b509392505050565b600082601f8301126128a7576128a661249d565b5b81356128b7848260208601612850565b91505092915050565b600080600080600060a086880312156128dc576128db6121fb565b5b60006128ea8882890161224e565b95505060206128fb8882890161224e565b945050604086013567ffffffffffffffff81111561291c5761291b612200565b5b612928888289016127f1565b935050606086013567ffffffffffffffff81111561294957612948612200565b5b612955888289016127f1565b925050608086013567ffffffffffffffff81111561297657612975612200565b5b61298288828901612892565b9150509295509295909350565b600067ffffffffffffffff8211156129aa576129a96124a7565b5b602082029050602081019050919050565b60006129ce6129c98461298f565b612507565b905080838252602082019050602084028301858111156129f1576129f0612783565b5b835b81811015612a1a5780612a06888261224e565b8452602084019350506020810190506129f3565b5050509392505050565b600082601f830112612a3957612a3861249d565b5b8135612a498482602086016129bb565b91505092915050565b60008060408385031215612a6957612a686121fb565b5b600083013567ffffffffffffffff811115612a8757612a86612200565b5b612a9385828601612a24565b925050602083013567ffffffffffffffff811115612ab457612ab3612200565b5b612ac0858286016127f1565b9150509250929050565b600060208284031215612ae057612adf6121fb565b5b6000612aee8482850161224e565b91505092915050565b612b0081612225565b82525050565b6000602082019050612b1b6000830184612af7565b92915050565b612b2a81612388565b8114612b3557600080fd5b50565b600081359050612b4781612b21565b92915050565b60008060408385031215612b6457612b636121fb565b5b6000612b728582860161224e565b9250506020612b8385828601612b38565b9150509250929050565b600060c0820190508181036000830152612ba78189612442565b90508181036020830152612bbb8188612442565b90508181036040830152612bcf8187612442565b90508181036060830152612be38186612442565b9050612bf260808301856122d9565b612bff60a0830184612af7565b979650505050505050565b60008060008060008060c08789031215612c2757612c266121fb565b5b6000612c3589828a0161224e565b965050602087013567ffffffffffffffff811115612c5657612c55612200565b5b612c6289828a016125a4565b955050604087013567ffffffffffffffff811115612c8357612c82612200565b5b612c8f89828a016125a4565b945050606087013567ffffffffffffffff811115612cb057612caf612200565b5b612cbc89828a016125a4565b935050608087013567ffffffffffffffff811115612cdd57612cdc612200565b5b612ce989828a016125a4565b92505060a0612cfa89828a01612284565b9150509295509295509295565b60008060408385031215612d1e57612d1d6121fb565b5b6000612d2c8582860161224e565b9250506020612d3d8582860161224e565b9150509250929050565b600080600080600060a08688031215612d6357612d626121fb565b5b6000612d718882890161224e565b9550506020612d828882890161224e565b9450506040612d9388828901612284565b9350506060612da488828901612284565b925050608086013567ffffffffffffffff811115612dc557612dc4612200565b5b612dd188828901612892565b9150509295509295909350565b7f546f6b656e20646f6573206e6f74206578697374000000000000000000000000600082015250565b6000612e146014836123f6565b9150612e1f82612dde565b602082019050919050565b60006020820190508181036000830152612e4381612e07565b9050919050565b7f4e487b7100000000000000000000000000000000000000000000000000000000600052602260045260246000fd5b60006002820490506001821680612e9157607f821691505b602082108103612ea457612ea3612e4a565b5b50919050565b7f456d707479205552490000000000000000000000000000000000000000000000600082015250565b6000612ee06009836123f6565b9150612eeb82612eaa565b602082019050919050565b60006020820190508181036000830152612f0f81612ed3565b9050919050565b7f4e6f7420617574686f72697a6564000000000000000000000000000000000000600082015250565b6000612f4c600e836123f6565b9150612f5782612f16565b602082019050919050565b60006020820190508181036000830152612f7b81612f3f565b9050919050565b60008190508160005260206000209050919050565b60006020601f8301049050919050565b600082821b905092915050565b600060088302612fe47fffffffffffffffffffffffffffffffffffffffffffffffffffffffffffffffff82612fa7565b612fee8683612fa7565b95508019841693508086168417925050509392505050565b6000819050919050565b600061302b61302661302184612263565b613006565b612263565b9050919050565b6000819050919050565b61304583613010565b61305961305182613032565b848454612fb4565b825550505050565b600090565b61306e613061565b61307981848461303c565b505050565b5b8181101561309d57613092600082613066565b60018101905061307f565b5050565b601f8211156130e2576130b381612f82565b6130bc84612f97565b810160208510156130cb578190505b6130df6130d785612f97565b83018261307e565b50505b505050565b600082821c905092915050565b6000613105600019846008026130e7565b1980831691505092915050565b600061311e83836130f4565b9150826002028217905092915050565b613137826123eb565b67ffffffffffffffff8111156131505761314f6124a7565b5b61315a8254612e79565b6131658282856130a1565b600060209050601f8311600181146131985760008415613186578287015190505b6131908582613112565b8655506131f8565b601f1984166131a686612f82565b60005b828110156131ce578489015182556001820191506020850194506020810190506131a9565b868310156131eb57848901516131e7601f8916826130f4565b8355505b6001600288020188555050505b505050505050565b600081905092915050565b6000613216826123eb565b6132208185613200565b9350613230818560208601612407565b80840191505092915050565b6000613248828461320b565b915081905092915050565b7f4e487b7100000000000000000000000000000000000000000000000000000000600052603260045260246000fd5b600060408201905061329760008301856122d9565b6132a460208301846122d9565b9392505050565b7f496e76616c696420696e766573746f7220616464726573730000000000000000600082015250565b60006132e16018836123f6565b91506132ec826132ab565b602082019050919050565b60006020820190508181036000830152613310816132d4565b9050919050565b7f456d7074792063616d706169676e204944000000000000000000000000000000600082015250565b600061334d6011836123f6565b915061335882613317565b602082019050919050565b6000602082019050818103600083015261337c81613340565b9050919050565b7f416d6f756e74206d75737420626520706f736974697665000000000000000000600082015250565b60006133b96017836123f6565b91506133c482613383565b602082019050919050565b600060208201905081810360008301526133e8816133ac565b9050919050565b7f4e487b7100000000000000000000000000000000000000000000000000000000600052601160045260246000fd5b600061342982612263565b91507fffffffffffffffffffffffffffffffffffffffffffffffffffffffffffffffff820361345b5761345a6133ef565b5b600182019050919050565b600060408201905061347b60008301856122d9565b818103602083015261348d8184612442565b90509392505050565b60006040820190506134ab6000830185612af7565b6134b86020830184612af7565b9392505050565b60006134ca82612263565b91506134d583612263565b92508282039050818111156134ed576134ec6133ef565b5b92915050565b7f4e487b7100000000000000000000000000000000000000000000000000000000600052603160045260246000fd5b60006080820190506135376000830187612af7565b61354460208301866122d9565b61355160408301856122d9565b61355e60608301846122d9565b95945050505050565b600061357282612263565b915061357d83612263565b9250828201905080821115613595576135946133ef565b5b92915050565b600060408201905081810360008301526135b581856126d7565b905081810360208301526135c981846126d7565b90509392505050565b600081519050919050565b600082825260208201905092915050565b60006135f9826135d2565b61360381856135dd565b9350613613818560208601612407565b61361c81612431565b840191505092915050565b600060a08201905061363c6000830188612af7565b6136496020830187612af7565b61365660408301866122d9565b61366360608301856122d9565b818103608083015261367581846135ee565b90509695505050505050565b6000815190506136908161232f565b92915050565b6000602082840312156136ac576136ab6121fb565b5b60006136ba84828501613681565b91505092915050565b600060a0820190506136d86000830188612af7565b6136e56020830187612af7565b81810360408301526136f781866126d7565b9050818103606083015261370b81856126d7565b9050818103608083015261371f81846135ee565b9050969550505050505056fea26469706673582212209d4f5f59e3217ab22b53aaf2488191e0830ed637fa38be9bb9200815c148c21464736f6c634300081c0033",
  "linkReferences": {},
  "deployedLinkReferences": {}
}